{
  "_format": "hh3-artifact-1",
  "contractName": "VISAT",
  "sourceName": "contracts/VisaCrowdfunding.sol",
  "abi": [
    {
      "inputs": [],
      "stateMutability": "nonpayable",
      "type": "constructor"
    },
    {
      "inputs": [
        {
          "internalType": "address",
          "name": "spender",
          "type": "address"
        },
        {
          "internalType": "uint256",
          "name": "allowance",
          "type": "uint256"
        },
        {
          "internalType": "uint256",
          "name": "needed",
          "type": "uint256"
        }
      ],
      "name": "ERC20InsufficientAllowance",
      "type": "error"
    },
    {
      "inputs": [
        {
          "internalType": "address",
          "name": "sender",
          "type": "address"
        },
        {
          "internalType": "uint256",
          "name": "balance",
          "type": "uint256"
        },
        {
          "internalType": "uint256",
          "name": "needed",
          "type": "uint256"
        }
      ],
      "name": "ERC20InsufficientBalance",
      "type": "error"
    },
    {
      "inputs": [
        {
          "internalType": "address",
          "name": "approver",
          "type": "address"
        }
      ],
      "name": "ERC20InvalidApprover",
      "type": "error"
    },
    {
      "inputs": [
        {
          "internalType": "address",
          "name": "receiver",
          "type": "address"
        }
      ],
      "name": "ERC20InvalidReceiver",
      "type": "error"
    },
    {
      "inputs": [
        {
          "internalType": "address",
          "name": "sender",
          "type": "address"
        }
      ],
      "name": "ERC20InvalidSender",
      "type": "error"
    },
    {
      "inputs": [
        {
          "internalType": "address",
          "name": "spender",
          "type": "address"
        }
      ],
      "name": "ERC20InvalidSpender",
      "type": "error"
    },
    {
      "inputs": [
        {
          "internalType": "address",
          "name": "owner",
          "type": "address"
        }
      ],
      "name": "OwnableInvalidOwner",
      "type": "error"
    },
    {
      "inputs": [
        {
          "internalType": "address",
          "name": "account",
          "type": "address"
        }
      ],
      "name": "OwnableUnauthorizedAccount",
      "type": "error"
    },
    {
      "anonymous": false,
      "inputs": [
        {
          "indexed": true,
          "internalType": "address",
          "name": "owner",
          "type": "address"
        },
        {
          "indexed": true,
          "internalType": "address",
          "name": "spender",
          "type": "address"
        },
        {
          "indexed": false,
          "internalType": "uint256",
          "name": "value",
          "type": "uint256"
        }
      ],
      "name": "Approval",
      "type": "event"
    },
    {
      "anonymous": false,
      "inputs": [
        {
          "indexed": true,
          "internalType": "address",
          "name": "previousOwner",
          "type": "address"
        },
        {
          "indexed": true,
          "internalType": "address",
          "name": "newOwner",
          "type": "address"
        }
      ],
      "name": "OwnershipTransferred",
      "type": "event"
    },
    {
      "anonymous": false,
      "inputs": [
        {
          "indexed": true,
          "internalType": "address",
          "name": "from",
          "type": "address"
        },
        {
          "indexed": true,
          "internalType": "address",
          "name": "to",
          "type": "address"
        },
        {
          "indexed": false,
          "internalType": "uint256",
          "name": "value",
          "type": "uint256"
        }
      ],
      "name": "Transfer",
      "type": "event"
    },
    {
      "inputs": [
        {
          "internalType": "address",
          "name": "owner",
          "type": "address"
        },
        {
          "internalType": "address",
          "name": "spender",
          "type": "address"
        }
      ],
      "name": "allowance",
      "outputs": [
        {
          "internalType": "uint256",
          "name": "",
          "type": "uint256"
        }
      ],
      "stateMutability": "view",
      "type": "function"
    },
    {
      "inputs": [
        {
          "internalType": "address",
          "name": "spender",
          "type": "address"
        },
        {
          "internalType": "uint256",
          "name": "value",
          "type": "uint256"
        }
      ],
      "name": "approve",
      "outputs": [
        {
          "internalType": "bool",
          "name": "",
          "type": "bool"
        }
      ],
      "stateMutability": "nonpayable",
      "type": "function"
    },
    {
      "inputs": [
        {
          "internalType": "address",
          "name": "account",
          "type": "address"
        }
      ],
      "name": "balanceOf",
      "outputs": [
        {
          "internalType": "uint256",
          "name": "",
          "type": "uint256"
        }
      ],
      "stateMutability": "view",
      "type": "function"
    },
    {
      "inputs": [],
      "name": "crowdfundingContract",
      "outputs": [
        {
          "internalType": "address",
          "name": "",
          "type": "address"
        }
      ],
      "stateMutability": "view",
      "type": "function"
    },
    {
      "inputs": [],
      "name": "decimals",
      "outputs": [
        {
          "internalType": "uint8",
          "name": "",
          "type": "uint8"
        }
      ],
      "stateMutability": "view",
      "type": "function"
    },
    {
      "inputs": [
        {
          "internalType": "address",
          "name": "to",
          "type": "address"
        },
        {
          "internalType": "uint256",
          "name": "amount",
          "type": "uint256"
        }
      ],
      "name": "mint",
      "outputs": [],
      "stateMutability": "nonpayable",
      "type": "function"
    },
    {
      "inputs": [],
      "name": "name",
      "outputs": [
        {
          "internalType": "string",
          "name": "",
          "type": "string"
        }
      ],
      "stateMutability": "view",
      "type": "function"
    },
    {
      "inputs": [],
      "name": "owner",
      "outputs": [
        {
          "internalType": "address",
          "name": "",
          "type": "address"
        }
      ],
      "stateMutability": "view",
      "type": "function"
    },
    {
      "inputs": [],
      "name": "renounceOwnership",
      "outputs": [],
      "stateMutability": "nonpayable",
      "type": "function"
    },
    {
      "inputs": [
        {
          "internalType": "address",
          "name": "_cf",
          "type": "address"
        }
      ],
      "name": "setCrowdfundingContract",
      "outputs": [],
      "stateMutability": "nonpayable",
      "type": "function"
    },
    {
      "inputs": [],
      "name": "symbol",
      "outputs": [
        {
          "internalType": "string",
          "name": "",
          "type": "string"
        }
      ],
      "stateMutability": "view",
      "type": "function"
    },
    {
      "inputs": [],
      "name": "totalSupply",
      "outputs": [
        {
          "internalType": "uint256",
          "name": "",
          "type": "uint256"
        }
      ],
      "stateMutability": "view",
      "type": "function"
    },
    {
      "inputs": [
        {
          "internalType": "address",
          "name": "to",
          "type": "address"
        },
        {
          "internalType": "uint256",
          "name": "value",
          "type": "uint256"
        }
      ],
      "name": "transfer",
      "outputs": [
        {
          "internalType": "bool",
          "name": "",
          "type": "bool"
        }
      ],
      "stateMutability": "nonpayable",
      "type": "function"
    },
    {
      "inputs": [
        {
          "internalType": "address",
          "name": "from",
          "type": "address"
        },
        {
          "internalType": "address",
          "name": "to",
          "type": "address"
        },
        {
          "internalType": "uint256",
          "name": "value",
          "type": "uint256"
        }
      ],
      "name": "transferFrom",
      "outputs": [
        {
          "internalType": "bool",
          "name": "",
          "type": "bool"
        }
      ],
      "stateMutability": "nonpayable",
      "type": "function"
    },
    {
      "inputs": [
        {
          "internalType": "address",
          "name": "newOwner",
          "type": "address"
        }
      ],
      "name": "transferOwnership",
      "outputs": [],
      "stateMutability": "nonpayable",
      "type": "function"
    }
  ],
  "bytecode": "0x608060405234801561000f575f5ffd5b50336040518060400160405280600a8152602001692b34b9b0902a37b5b2b760b11b81525060405180604001604052806005815260200164159254d05560da1b81525081600390816100619190610196565b50600461006e8282610196565b5050506001600160a01b03811661009e57604051631e4fbdf760e01b81525f600482015260240160405180910390fd5b6100a7816100ad565b50610250565b600580546001600160a01b038381166001600160a01b0319831681179093556040519116919082907f8be0079c531659141344cd1fd0a4f28419497f9722a3daafe3b4186f6b6457e0905f90a35050565b634e487b7160e01b5f52604160045260245ffd5b600181811c9082168061012657607f821691505b60208210810361014457634e487b7160e01b5f52602260045260245ffd5b50919050565b601f82111561019157805f5260205f20601f840160051c8101602085101561016f5750805b601f840160051c820191505b8181101561018e575f815560010161017b565b50505b505050565b81516001600160401b038111156101af576101af6100fe565b6101c3816101bd8454610112565b8461014a565b6020601f8211600181146101f5575f83156101de5750848201515b5f19600385901b1c1916600184901b17845561018e565b5f84815260208120601f198516915b828110156102245787850151825560209485019460019092019101610204565b508482101561024157868401515f19600387901b60f8161c191681555b50505050600190811b01905550565b6109888061025d5f395ff3fe608060405234801561000f575f5ffd5b50600436106100f0575f3560e01c8063715018a611610093578063dd11daad11610063578063dd11daad146101ee578063dd62ed3e14610201578063f2fde38b14610239578063f8d02d951461024c575f5ffd5b8063715018a6146101a65780638da5cb5b146101ae57806395d89b41146101d3578063a9059cbb146101db575f5ffd5b806323b872dd116100ce57806323b872dd14610147578063313ce5671461015a57806340c10f191461016957806370a082311461017e575f5ffd5b806306fdde03146100f4578063095ea7b31461011257806318160ddd14610135575b5f5ffd5b6100fc61025f565b60405161010991906107f8565b60405180910390f35b610125610120366004610848565b6102ef565b6040519015158152602001610109565b6002545b604051908152602001610109565b610125610155366004610870565b610308565b60405160128152602001610109565b61017c610177366004610848565b61032b565b005b61013961018c3660046108aa565b6001600160a01b03165f9081526020819052604090205490565b61017c610386565b6005546001600160a01b03165b6040516001600160a01b039091168152602001610109565b6100fc610399565b6101256101e9366004610848565b6103a8565b61017c6101fc3660046108aa565b6103b5565b61013961020f3660046108ca565b6001600160a01b039182165f90815260016020908152604080832093909416825291909152205490565b61017c6102473660046108aa565b610426565b6006546101bb906001600160a01b031681565b60606003805461026e906108fb565b80601f016020809104026020016040519081016040528092919081815260200182805461029a906108fb565b80156102e55780601f106102bc576101008083540402835291602001916102e5565b820191905f5260205f20905b8154815290600101906020018083116102c857829003601f168201915b5050505050905090565b5f336102fc818585610463565b60019150505b92915050565b5f33610315858285610475565b6103208585856104f1565b506001949350505050565b6006546001600160a01b031633146103785760405162461bcd60e51b815260206004820152600b60248201526a139bdd08185b1b1bddd95960aa1b60448201526064015b60405180910390fd5b610382828261054e565b5050565b61038e610582565b6103975f6105af565b565b60606004805461026e906108fb565b5f336102fc8185856104f1565b6103bd610582565b6006546001600160a01b0316156104045760405162461bcd60e51b815260206004820152600b60248201526a105b1c9958591e481cd95d60aa1b604482015260640161036f565b600680546001600160a01b0319166001600160a01b0392909216919091179055565b61042e610582565b6001600160a01b03811661045757604051631e4fbdf760e01b81525f600482015260240161036f565b610460816105af565b50565b6104708383836001610600565b505050565b6001600160a01b038381165f908152600160209081526040808320938616835292905220545f198110156104eb57818110156104dd57604051637dc7a0d960e11b81526001600160a01b0384166004820152602481018290526044810183905260640161036f565b6104eb84848484035f610600565b50505050565b6001600160a01b03831661051a57604051634b637e8f60e11b81525f600482015260240161036f565b6001600160a01b0382166105435760405163ec442f0560e01b81525f600482015260240161036f565b6104708383836106d2565b6001600160a01b0382166105775760405163ec442f0560e01b81525f600482015260240161036f565b6103825f83836106d2565b6005546001600160a01b031633146103975760405163118cdaa760e01b815233600482015260240161036f565b600580546001600160a01b038381166001600160a01b0319831681179093556040519116919082907f8be0079c531659141344cd1fd0a4f28419497f9722a3daafe3b4186f6b6457e0905f90a35050565b6001600160a01b0384166106295760405163e602df0560e01b81525f600482015260240161036f565b6001600160a01b03831661065257604051634a1406b160e11b81525f600482015260240161036f565b6001600160a01b038085165f90815260016020908152604080832093871683529290522082905580156104eb57826001600160a01b0316846001600160a01b03167f8c5be1e5ebec7d5bd14f71427d1e84f3dd0314c0f7b2291e5b200ac8c7c3b925846040516106c491815260200190565b60405180910390a350505050565b6001600160a01b0383166106fc578060025f8282546106f19190610933565b9091555061076c9050565b6001600160a01b0383165f908152602081905260409020548181101561074e5760405163391434e360e21b81526001600160a01b0385166004820152602481018290526044810183905260640161036f565b6001600160a01b0384165f9081526020819052604090209082900390555b6001600160a01b038216610788576002805482900390556107a6565b6001600160a01b0382165f9081526020819052604090208054820190555b816001600160a01b0316836001600160a01b03167fddf252ad1be2c89b69c2b068fc378daa952ba7f163c4a11628f55a4df523b3ef836040516107eb91815260200190565b60405180910390a3505050565b602081525f82518060208401528060208501604085015e5f604082850101526040601f19601f83011684010191505092915050565b80356001600160a01b0381168114610843575f5ffd5b919050565b5f5f60408385031215610859575f5ffd5b6108628361082d565b946020939093013593505050565b5f5f5f60608486031215610882575f5ffd5b61088b8461082d565b92506108996020850161082d565b929592945050506040919091013590565b5f602082840312156108ba575f5ffd5b6108c38261082d565b9392505050565b5f5f604083850312156108db575f5ffd5b6108e48361082d565b91506108f26020840161082d565b90509250929050565b600181811c9082168061090f57607f821691505b60208210810361092d57634e487b7160e01b5f52602260045260245ffd5b50919050565b8082018082111561030257634e487b7160e01b5f52601160045260245ffdfea26469706673582212209166f81300ff813524f613e02d5e6e0680882ffd24e24e522d62631e3887028664736f6c634300081c0033",
  "linkReferences": {},
  "deployedLinkReferences": {},
  "immutableReferences": {},
  "inputSourceName": "project/contracts/VisaCrowdfunding.sol",
  "buildInfoId": "solc-0_8_28-9fb06a679214820e9db586067746f595d91353ed"
}