{
  "_format": "hh3-artifact-1",
  "contractName": "VisaCrowdfunding",
  "sourceName": "contracts/VisaCrowdfunding.sol",
  "abi": [
    {
      "inputs": [
        {
          "internalType": "address",
          "name": "_visatToken",
          "type": "address"
        }
      ],
      "stateMutability": "nonpayable",
      "type": "constructor"
    },
    {
      "anonymous": false,
      "inputs": [
        {
          "indexed": true,
          "internalType": "uint256",
          "name": "campaignId",
          "type": "uint256"
        },
        {
          "indexed": false,
          "internalType": "string",
          "name": "country",
          "type": "string"
        },
        {
          "indexed": false,
          "internalType": "uint256",
          "name": "goal",
          "type": "uint256"
        },
        {
          "indexed": false,
          "internalType": "uint256",
          "name": "deadline",
          "type": "uint256"
        },
        {
          "indexed": false,
          "internalType": "address",
          "name": "creator",
          "type": "address"
        }
      ],
      "name": "CampaignCreated",
      "type": "event"
    },
    {
      "anonymous": false,
      "inputs": [
        {
          "indexed": true,
          "internalType": "uint256",
          "name": "campaignId",
          "type": "uint256"
        }
      ],
      "name": "CampaignFinalized",
      "type": "event"
    },
    {
      "anonymous": false,
      "inputs": [
        {
          "indexed": true,
          "internalType": "uint256",
          "name": "campaignId",
          "type": "uint256"
        },
        {
          "indexed": true,
          "internalType": "address",
          "name": "contributor",
          "type": "address"
        },
        {
          "indexed": false,
          "internalType": "uint256",
          "name": "ethAmount",
          "type": "uint256"
        },
        {
          "indexed": false,
          "internalType": "uint256",
          "name": "visatReward",
          "type": "uint256"
        }
      ],
      "name": "VisaPurchased",
      "type": "event"
    },
    {
      "inputs": [
        {
          "internalType": "uint256",
          "name": "campaignId",
          "type": "uint256"
        }
      ],
      "name": "buyVisa",
      "outputs": [],
      "stateMutability": "payable",
      "type": "function"
    },
    {
      "inputs": [],
      "name": "campaignCount",
      "outputs": [
        {
          "internalType": "uint256",
          "name": "",
          "type": "uint256"
        }
      ],
      "stateMutability": "view",
      "type": "function"
    },
    {
      "inputs": [
        {
          "internalType": "uint256",
          "name": "",
          "type": "uint256"
        }
      ],
      "name": "campaigns",
      "outputs": [
        {
          "internalType": "string",
          "name": "country",
          "type": "string"
        },
        {
          "internalType": "uint256",
          "name": "goal",
          "type": "uint256"
        },
        {
          "internalType": "uint256",
          "name": "deadline",
          "type": "uint256"
        },
        {
          "internalType": "uint256",
          "name": "raised",
          "type": "uint256"
        },
        {
          "internalType": "address",
          "name": "creator",
          "type": "address"
        },
        {
          "internalType": "bool",
          "name": "finalized",
          "type": "bool"
        }
      ],
      "stateMutability": "view",
      "type": "function"
    },
    {
      "inputs": [
        {
          "internalType": "uint256",
          "name": "",
          "type": "uint256"
        },
        {
          "internalType": "address",
          "name": "",
          "type": "address"
        }
      ],
      "name": "contributions",
      "outputs": [
        {
          "internalType": "uint256",
          "name": "",
          "type": "uint256"
        }
      ],
      "stateMutability": "view",
      "type": "function"
    },
    {
      "inputs": [
        {
          "internalType": "string",
          "name": "country",
          "type": "string"
        },
        {
          "internalType": "uint256",
          "name": "goal",
          "type": "uint256"
        },
        {
          "internalType": "uint256",
          "name": "duration",
          "type": "uint256"
        }
      ],
      "name": "createCampaign",
      "outputs": [],
      "stateMutability": "nonpayable",
      "type": "function"
    },
    {
      "inputs": [
        {
          "internalType": "uint256",
          "name": "campaignId",
          "type": "uint256"
        }
      ],
      "name": "finalizeCampaign",
      "outputs": [],
      "stateMutability": "nonpayable",
      "type": "function"
    },
    {
      "inputs": [
        {
          "internalType": "uint256",
          "name": "campaignId",
          "type": "uint256"
        }
      ],
      "name": "getCampaign",
      "outputs": [
        {
          "internalType": "string",
          "name": "country",
          "type": "string"
        },
        {
          "internalType": "uint256",
          "name": "goal",
          "type": "uint256"
        },
        {
          "internalType": "uint256",
          "name": "deadline",
          "type": "uint256"
        },
        {
          "internalType": "uint256",
          "name": "raised",
          "type": "uint256"
        },
        {
          "internalType": "address",
          "name": "creator",
          "type": "address"
        },
        {
          "internalType": "bool",
          "name": "finalized",
          "type": "bool"
        }
      ],
      "stateMutability": "view",
      "type": "function"
    },
    {
      "inputs": [
        {
          "internalType": "uint256",
          "name": "campaignId",
          "type": "uint256"
        },
        {
          "internalType": "address",
          "name": "user",
          "type": "address"
        }
      ],
      "name": "hasVisa",
      "outputs": [
        {
          "internalType": "bool",
          "name": "",
          "type": "bool"
        }
      ],
      "stateMutability": "view",
      "type": "function"
    },
    {
      "inputs": [],
      "name": "visatToken",
      "outputs": [
        {
          "internalType": "contract VISAT",
          "name": "",
          "type": "address"
        }
      ],
      "stateMutability": "view",
      "type": "function"
    }
  ],
  "bytecode": "0x6080604052600a6001553480156013575f5ffd5b50604051610d81380380610d818339810160408190526030916053565b5f80546001600160a01b0319166001600160a01b0392909216919091179055607e565b5f602082840312156062575f5ffd5b81516001600160a01b03811681146077575f5ffd5b9392505050565b610cf68061008b5f395ff3fe608060405260043610610084575f3560e01c80633d891f59116100575780633d891f591461012c5780635598f8cc14610170578063670faaa41461018f5780636b5ca27d146101be5780637274e30d146101dd575f5ffd5b8063141961bc146100885780632dd9fc60146100c25780633020580b146100f85780633b0a7dbb14610119575b5f5ffd5b348015610093575f5ffd5b506100a76100a236600461099c565b6101f2565b6040516100b9969594939291906109b3565b60405180910390f35b3480156100cd575f5ffd5b505f546100e0906001600160a01b031681565b6040516001600160a01b0390911681526020016100b9565b348015610103575f5ffd5b50610117610112366004610a17565b6102bb565b005b61011761012736600461099c565b610495565b348015610137575f5ffd5b50610162610146366004610a91565b600460209081525f928352604080842090915290825290205481565b6040519081526020016100b9565b34801561017b575f5ffd5b506100a761018a36600461099c565b610677565b34801561019a575f5ffd5b506101ae6101a9366004610a91565b6107ad565b60405190151581526020016100b9565b3480156101c9575f5ffd5b506101176101d836600461099c565b6107d8565b3480156101e8575f5ffd5b5061016260025481565b60036020525f908152604090208054819061020c90610aca565b80601f016020809104026020016040519081016040528092919081815260200182805461023890610aca565b80156102835780601f1061025a57610100808354040283529160200191610283565b820191905f5260205f20905b81548152906001019060200180831161026657829003601f168201915b50505050600183015460028401546003850154600490950154939491939092506001600160a01b03811690600160a01b900460ff1686565b5f82116103025760405162461bcd60e51b815260206004820152601060248201526f0476f616c206d757374206265203e20360841b60448201526064015b60405180910390fd5b5f81116103485760405162461bcd60e51b815260206004820152601460248201527304475726174696f6e206d757374206265203e20360641b60448201526064016102f9565b6040518060c0016040528085858080601f0160208091040260200160405190810160405280939291908181526020018383808284375f920191909152505050908252506020810184905260400161039f8342610b16565b81525f602080830182905233604080850191909152606090930182905260025482526003905220815181906103d49082610b89565b506020820151600182015560408201516002808301919091556060830151600383015560808301516004909201805460a0909401511515600160a01b026001600160a81b03199094166001600160a01b0390931692909217929092179055547f55c246c9acac35defa7b5b11325208f9615273b139a7d1642a880afb4568637e8585856104618642610b16565b33604051610473959493929190610c44565b60405180910390a260028054905f61048a83610c91565b919050555050505050565b5f818152600360205260409020600281015442106104e65760405162461bcd60e51b815260206004820152600e60248201526d10d85b5c185a59db88195b99195960921b60448201526064016102f9565b5f34116105205760405162461bcd60e51b81526020600482015260086024820152670a6cadcc8408aa8960c31b60448201526064016102f9565b6004810154600160a01b900460ff16156105715760405162461bcd60e51b815260206004820152601260248201527110d85b5c185a59db88199a5b985b1a5e995960721b60448201526064016102f9565b34816003015f8282546105849190610b16565b90915550505f828152600460209081526040808320338452909152812080543492906105b1908490610b16565b90915550505f546001546001600160a01b03909116906340c10f199033906105d99034610ca9565b6040516001600160e01b031960e085901b1681526001600160a01b03909216600483015260248201526044015f604051808303815f87803b15801561061c575f5ffd5b505af115801561062e573d5f5f3e3d5ffd5b50506001546040805134815260208101929092523393508592507f5ccf012a0a567170db10fcd7c94870cbaa2987b19aeca31a2d6594f0fe3d547d910160405180910390a35050565b60605f5f5f5f5f5f60035f8981526020019081526020015f206040518060c00160405290815f820180546106aa90610aca565b80601f01602080910402602001604051908101604052809291908181526020018280546106d690610aca565b80156107215780601f106106f857610100808354040283529160200191610721565b820191905f5260205f20905b81548152906001019060200180831161070457829003601f168201915b50505091835250506001820154602080830191909152600283015460408084019190915260038401546060808501919091526004909401546001600160a01b038116608080860191909152600160a01b90910460ff16151560a0948501528551928601519186015194860151908601519590930151919d909c50929a5090985091965090945092505050565b5f8281526004602090815260408083206001600160a01b038516845290915290205415155b92915050565b5f81815260036020526040902060048101546001600160a01b0316331461082f5760405162461bcd60e51b815260206004820152600b60248201526a2737ba1031b932b0ba37b960a91b60448201526064016102f9565b806002015442101561086f5760405162461bcd60e51b8152602060048201526009602482015268139bdd08195b99195960ba1b60448201526064016102f9565b6004810154600160a01b900460ff16156108bf5760405162461bcd60e51b8152602060048201526011602482015270105b1c9958591e48199a5b985b1a5e9959607a1b60448201526064016102f9565b600481018054600160a01b60ff60a01b1982161790915560038201546040515f926001600160a01b031691908381818185875af1925050503d805f8114610921576040519150601f19603f3d011682016040523d82523d5f602084013e610926565b606091505b505090508061096d5760405162461bcd60e51b8152602060048201526013602482015272115512081d1c985b9cd9995c8819985a5b1959606a1b60448201526064016102f9565b60405183907f79e19121aa255cb066a0c009cb90dc7e4847878c99372edec7374527541c1814905f90a2505050565b5f602082840312156109ac575f5ffd5b5035919050565b60c081525f87518060c08401528060208a0160e085015e5f60e0828501810191909152602084019890985260408301969096525060608101939093526001600160a01b03919091166080830152151560a0820152601f909101601f19160101919050565b5f5f5f5f60608587031215610a2a575f5ffd5b843567ffffffffffffffff811115610a40575f5ffd5b8501601f81018713610a50575f5ffd5b803567ffffffffffffffff811115610a66575f5ffd5b876020828401011115610a77575f5ffd5b602091820198909750908601359560400135945092505050565b5f5f60408385031215610aa2575f5ffd5b8235915060208301356001600160a01b0381168114610abf575f5ffd5b809150509250929050565b600181811c90821680610ade57607f821691505b602082108103610afc57634e487b7160e01b5f52602260045260245ffd5b50919050565b634e487b7160e01b5f52601160045260245ffd5b808201808211156107d2576107d2610b02565b634e487b7160e01b5f52604160045260245ffd5b601f821115610b8457805f5260205f20601f840160051c81016020851015610b625750805b601f840160051c820191505b81811015610b81575f8155600101610b6e565b50505b505050565b815167ffffffffffffffff811115610ba357610ba3610b29565b610bb781610bb18454610aca565b84610b3d565b6020601f821160018114610be9575f8315610bd25750848201515b5f19600385901b1c1916600184901b178455610b81565b5f84815260208120601f198516915b82811015610c185787850151825560209485019460019092019101610bf8565b5084821015610c3557868401515f19600387901b60f8161c191681555b50505050600190811b01905550565b60808152846080820152848660a08301375f60a0868301810191909152602082019490945260408101929092526001600160a01b03166060820152601f909201601f191690910101919050565b5f60018201610ca257610ca2610b02565b5060010190565b80820281158282048414176107d2576107d2610b0256fea26469706673582212204e3955d9d4181981bd864720aec6b7be527451a378910102da61378e281effe864736f6c634300081c0033",
  "linkReferences": {},
  "deployedLinkReferences": {},
  "immutableReferences": {},
  "inputSourceName": "project/contracts/VisaCrowdfunding.sol",
  "buildInfoId": "solc-0_8_28-9fb06a679214820e9db586067746f595d91353ed"
}